:020000040800F2
:1000000000000220B9020008BF020008C302000875
:1000100035030008390300088103000800000000D0
:10002000000000000000000000000000F11D0008BA
:10003000CD03000800000000911E0008F51E000816
:10004000E5030008E5030008E5030008E5030008F0
:10005000E5030008E5030008E5030008E5030008E0
:10006000E5030008E5030008E5030008E5030008D0
:10007000E5030008E5030008E5030008E5030008C0
:10008000E5030008E5030008E5030008E5030008B0
:10009000E5030008E5030008E5030008E5030008A0
:1000A000E5030008E5030008E5030008E503000890
:1000B000E5030008E5030008E5030008E503000880
:1000C000E5030008E5030008E5030008E503000870
:1000D000E5030008E5030008E5030008E503000860
:1000E000E5030008E5030008E5030008E503000850
:1000F000E5030008E5030008E5030008E503000840
:10010000E5030008E5030008E5030008E50300082F
:10011000E5030008E5030008E5030008E50300081F
:10012000E5030008E5030008E5030008E50300080F
:10013000E5030008E5030008E5030008E5030008FF
:10014000E5030008E5030008E5030008E5030008EF
:10015000E5030008E5030008E5030008E5030008DF
:10016000E5030008E5030008E5030008E5030008CF
:10017000E5030008E5030008E503000800000000AF
:10018000E5030008E503000800B583B001F0A2F81C
:10019000384B394A1360394A1360394906E052F83E
:1001A000041B43F8041B9842F9D86146354B994229
:1001B00005D20A684B6801F10C0C8868F3E72E4BF6
:1001C0001A68314B9A4200D0FEE72C4B1A682F4B2D
:1001D0009A42F9D1274B2E4A13602E4A13602E4AB9
:1001E00000E002462D4B9A4209D2104650F8083BD7
:1001F00051689942F5D9002243F8042BF9E7244BC2
:100200001B6813B9234B1B6803B1FEE701F016F915
:10021000694601A800F08EFE214C224BE41AA4107E
:10022000002504E01F4B53F8253098470135AC42B8
:10023000F8DC1D4C1D4BE41AA410002504E01B4BF8
:1002400053F8253098470135AC42F8DC0099019805
:1002500001F038FC0546164C164BE41AA41004E0D5
:10026000013C144B53F824309847002CF8DC284606
:1002700000F0FCFDBABADECA0000002064000020D5
:10028000E8030008000400087856341232547698C7
:1002900068000020C8310120000400081004000894
:1002A00010040008100400081004000810040008DE
:1002B000100400081004000808B5FFF765FF00BE31
:1002C000FEE71EF0040F0CBFEFF30880EFF3098088
:1002D0007146414A10472DE9F04182B004460D466F
:1002E000124B5F6BD3F838809E6A1B6B13F0020FC2
:1002F00003D00E4BDB6A002B0BDB0D4800F0C4FE75
:10030000009543463A463146204600F0F9FE00BECD
:10031000FEE74BF6AB6100F06DFF0028EDD0034B1C
:100320004FF00042DA6202B0BDE8F08100ED00E07B
:100330001847000800BEFEE71EF0040F0CBFEFF3E5
:100340000880EFF309807146244A10472DE9F041F7
:1003500082B004460D46084B5F6BD3F838809E6A26
:10036000064800F091FE009543463A463146204645
:1003700000F0C6FE00BEFEE700ED00E028470008E2
:100380001EF0040F0CBFEFF30880EFF309807146F5
:10039000134A10472DE9F04182B004460D46084B40
:1003A0005F6BD3F838809E6A064800F06DFE0095BA
:1003B00043463A463146204600F0A2FE00BEFEE724
:1003C00000ED00E03447000800BEFEE700BEFEE797
:1003D00000BEFEE770470000D70200084D0300088A
:0803E0009503000800BEFEE7D2
:1003E800644D00080000002068000020644D0008EB
:1003F800000000100000001068000020CC3101202F
:080408000000001000000010CC
:1004100010B504460E4B1A784FF47A73B3FBF2F31F
:100420000C4A1068B0FBF3F000F0AEF868B90F2C7E
:1004300001D901200AE0002221464FF0FF3000F0F0
:100440007FF8054B1C60002000E0012010BD00BFBC
:10045000040000200C0000200800002008B50B4B11
:100460001A6842F400721A601A6842F480621A60D4
:100470001A6842F480721A60032000F043F80F20DB
:10048000FFF7C6FF01F048FB002008BD003C02401A
:10049000014B1868704700BF6C000020002808DB83
:1004A0000901C9B200F1604000F5614080F8001315
:1004B000704700F00F000901C9B2014B1954704791
:1004C00014ED00E000B500F00700C0F1070CBCF12E
:1004D000040F28BF4FF0040C031D062B0FD9C31EB9
:1004E0004FF0FF3E0EFA0CF021EA000199400EFA9F
:1004F00003FE22EA0E0241EA02005DF804FB00233B
:10050000EEE7000010B50446C31E042B0FD80A4ABC
:10051000D36823F4E0631B041B0C240204F4E0649E
:10052000234343F0BF6343F40033D36010BD9221F3
:10053000024800F08BFFEAE700ED00E040450008CC
:1005400070B506460C4615460F2A0ED80F2C11D84A
:100550000B4BD8682A462146C0F30220FFF7B2FFB2
:1005600001463046FFF79AFF70BDAA21054800F00A
:100570006DFFEBE7AB21034800F068FFE8E700BF41
:1005800000ED00E0404500080138B0F1807F0BD25B
:100590004FF0E0235861054AF02182F82310002033
:1005A000986107221A6170470120704700ED00E052
:1005B00008B5042807D068B94FF0E022136923F08A
:1005C0000403136108BD4FF0E022136943F00403F4
:1005D0001361F7E740F2C911014800F037FFEBE77C
:1005E00040450008002800F0588270B582B00446EB
:1005F00003680F2B39D8236813F0010F4DD06368BF
:100600002BB1B3F5803F02D0B3F5A02F32D1804B90
:100610009B6803F00C03042B36D07D4B9B6803F0E2
:100620000C03082B2BD06368B3F5803F5FD0B3F584
:10063000A02F62D0764B1A6822F480321A601A68B2
:1006400022F480221A606368002B60D0FFF720FF3D
:1006500005466F4B1B6813F4003F1ED1FFF718FFD0
:10066000401B6428F5D903201EE2E821694800F008
:10067000EDFEC0E7ED21674800F0E8FEC7E7644BF8
:100680005B6813F4800FCED0614B1B6813F4003FFE
:1006900003D06368002B00F00282236813F0020F7E
:1006A00066D0E368012B41D823691F2B44D8584BEF
:1006B0009B6813F00C0F4AD0554B9B6803F00C035A
:1006C000082B3FD0E368002B77D0534B01221A60F0
:1006D000FFF7DEFE05464E4B1B6813F0020F63D199
:1006E000FFF7D6FE401B0228F5D90320DCE1484A7B
:1006F000136843F480331360A5E7454B1A6842F44E
:1007000080221A601A6842F480321A609BE7FFF771
:10071000BFFE05463E4B1B6813F4003FBDD0FFF7FC
:10072000B7FE401B6428F5D90320BDE140F21F113C
:10073000384800F08BFEB7E74FF49071354800F071
:1007400085FEB4E7324B5B6813F4800FBAD1304BAF
:100750001B6813F0020F03D0E368012B40F0A18166
:100760002B4A136823F0F803216943EAC10313609D
:10077000236813F0080F51D06369012B2FD86369E8
:100780009BB3254B0122C3F8802EFFF781FE05465F
:100790001F4B5B6F13F0020F40D1FFF779FE401B38
:1007A0000228F5D903207FE1194A136823F0F803E2
:1007B000216943EAC1031360DAE7174B00221A608C
:1007C000FFF766FE0546124B1B6813F0020FCFD0F1
:1007D000FFF75EFE401B0228F5D9032064E14FF4C9
:1007E000B0710C4800F032FEC9E70B4B0022C3F891
:1007F000802EFFF74DFE0546054B5B6F13F0020F91
:100800000CD0FFF745FE401B0228F5D903204BE131
:10081000003802407445000800004742236813F086
:10082000040F7CD0A368012B01D9052B38D1A44B30
:100830001B6C13F0805F39D100230193A04B1A6C1D
:1008400042F080521A641B6C03F080530193019BA9
:1008500001259C4B1B6813F4807F29D0A368012BD2
:100860003AD0052B3ED0964B1A6F22F001021A6740
:100870001A6F22F004021A67A368002B3CD0FFF71E
:1008800007FE06468E4B1B6F13F0020F45D1FFF794
:10089000FFFD801B41F288339842F3D9032003E126
:1008A0004FF4C671884800F0D1FDC0E70025D0E7BD
:1008B000844A136843F480731360FFF7E9FD06462A
:1008C000804B1B6813F4807FC8D1FFF7E1FD801BCC
:1008D0000228F5D90320E7E0794A136F43F00103BA
:1008E0001367C9E7764B1A6F42F004021A671A6F52
:1008F00042F001021A67BFE7FFF7CAFD0646704BD8
:100900001B6F13F0020F08D0FFF7C2FD801B41F2EE
:1009100088339842F3D90320C6E0002D3BD1A36968
:10092000022B3ED8A369002B00F0BD80644A926878
:1009300002F00C02082A00F09080022B79D1E369C2
:1009400013B1B3F5800F32D1236A3F2B35D8636AD8
:10095000323BB3F5BF7F36D8A26A082A39D84FF4A4
:10096000AA73D34013F0010F33D0E36A023B0D2B7F
:1009700035D8564B00221A66FFF78AFD0546504BC4
:100980001B6813F0007F30D0FFF782FD401B022868
:10099000F5D9032088E04A4A136C23F0805313648E
:1009A000BDE740F2CF11484800F050FDBAE74FF4E0
:1009B000EC71454800F04AFDC6E740F2D9114248C3
:1009C00000F044FDC3E74FF4ED713F4800F03EFDF9
:1009D000C2E740F2DB113C4800F038FDC5E74FF4B8
:1009E000EE71394800F032FDC3E7E369226A134330
:1009F000626A43EA8213A26A5208013A43EA024356
:100A0000E26A43EA02632E4A5360304B01221A66BF
:100A1000FFF73EFD04462A4B1B6813F0007F06D10A
:100A2000FFF736FD001B0228F5D903203CE000202B
:100A30003AE0264B00221A66FFF72AFD0446204BB7
:100A40001B6813F0007F06D0FFF722FD001B022871
:100A5000F5D9032028E0002026E0012B26D0184BF2
:100A60005B6803F48001E269914221D103F03F0207
:100A7000216A8A421ED1616A47F6C0721A408A42D0
:100A80001AD103F44032A16A8A4217D103F070638D
:100A9000E26A93421CD1002006E001207047012049
:100AA00002E0012000E0002002B070BD0120FBE761
:100AB0000120F9E70120F7E70120F5E70120F3E73E
:100AC00000380240007000407445000800004742B2
:100AD0000120E9E708B5334B9B6803F00C03042BB6
:100AE0005BD0082B5BD12F4B5A6802F03F025B684A
:100AF00013F4800F2CD02B4B5868C0F388104FEAAA
:100B0000401CBCEB000C6EEB0E0E4FEA8E1343EA5A
:100B10009C634FEA8C11B1EB0C0163EB0E03DB001D
:100B200043EA5173C90011EB000C43F10003590271
:100B300000234FEA4C2041EADC5102F0A7FD194B9B
:100B40005B68C3F3014301335B00B0FBF3F008BD06
:100B5000144B5868C0F388104FEA401CBCEB000CE3
:100B60006EEB0E0E4FEA8E1343EA9C634FEA8C1134
:100B7000B1EB0C0163EB0E03DB0043EA5173C900D8
:100B800011EB000C43F10003990200234FEA8C2083
:100B900041EA9C5102F07AFDD1E70348D7E70348C8
:100BA000D5E700BF0038024000127A000024F400AC
:100BB000002800F0FA8070B50D4604460368013B3A
:100BC0000E2B32D8072D36D87C4B1B6803F00F0351
:100BD000AB4208D2EBB2794A1370136803F00F03EB
:100BE000AB4240F0E480236813F0020F3ED013F0D4
:100BF000040F04D0724A936843F4E053936023686F
:100C000013F0080F04D06E4A936843F46043936076
:100C1000A36823B3C02B22D016D8A02B1FD010D886
:100C2000802B1CD0902B1AD014E040F25121654843
:100C300000F00CFCC6E740F25221624800F006FCCE
:100C4000C2E7B02B0BD005E0E02B08D0F02B06D08C
:100C5000D02B04D040F275215A4800F0F7FB584AD7
:100C6000936823F0F003A1680B439360236813F0AB
:100C7000010F3CD06368032B25D86368012B28D073
:100C80009A1E012A2CD94E4A126812F0020F00F067
:100C900090804B498A6822F0030213438B60FFF770
:100CA000F7FB0646464B9B6803F00C036268B3EB08
:100CB000820F1CD0FFF7ECFB801B41F28833984277
:100CC000F0D9032064E04FF41F713E4800F0BEFBF2
:100CD000D3E73B4A126812F4003FDAD1012057E013
:100CE000374A126812F0007FD3D1012050E0334B15
:100CF0001B6803F00F03AB4207D9EAB22F4B1A70FF
:100D00001B6803F00F03AB4255D1236813F0040FA7
:100D100014D0E3685BB1B3F5805F08D0B3F5A05F92
:100D200005D0B3F5C05F02D0B3F5E05F31D1244AFE
:100D3000936823F4E053E1680B439360236813F056
:100D4000080F15D023695BB1B3F5805F08D0B3F508
:100D5000A05F05D0B3F5C05F02D0B3F5E05F1ED150
:100D6000174A936823F46043216943EAC1039360FF
:100D7000FFF7B0FE124B9B68C3F30313124AD35C18
:100D8000D840124B1860124B1868FFF741FB002047
:100D900070BD40F2BA210B4800F058FBC7E740F2A3
:100DA000C121084800F052FBDAE70120704701201A
:100DB000EEE70120ECE70120EAE700BF003C02403B
:100DC0000038024074450008E44A00080C00002086
:100DD00008000020014B1868704700BF0C0000207D
:100DE00000B583B08C46194652B11446064B0194A7
:100DF000009363460246054800F046F900F00AF801
:100E0000034B1C46F3E700BFA4450008B4450008A7
:100E10007047000808B5034800F050F9012000F0C1
:100E200025F800BFE445000808B503460C4A1268DF
:100E30005AB10B4A1068033323F003030344094AF1
:100E4000934206D8064A136008BD054A0649116058
:100E5000EFE702F0B5FE0C2303604FF0FF30F3E73D
:100E60007000002000FC0120CC31012000B530B919
:100E7000044D182420462946ABBE0446FEE7024D29
:100E8000F7E700BF26000200230002002DE9F04131
:100E900084B0234F01970326039600230293012475
:100EA00001AD20462946ABBE80461E4BC3F80080EC
:100EB000019703960423029320462946ABBE804641
:100EC000194BC3F80080019703960823029320462C
:100ED0002946ABBE0446154B1C60B4F1FF3F01D060
:100EE00000230AE0104B1A68104B1A60F8E7104A0A
:100EF0004FF0FF3142F833100133132BF7DD0C4B69
:100F0000084A12681A6000225A6007490968996005
:100F1000DA600649096819615A6104B0BDE8F081D8
:100F2000F8450008F4000020F0000020EC0000204C
:100F3000F80000202DE9F04383B0814688462A4B13
:100F400000934F23019315276C4638462146ABBECC
:100F50000746AFBB244B002283F84F20009A3E4641
:100F60003C463D4607E001321E46204B43F8252013
:100F700001350124013292F90030FBB164B91C49FA
:100F8000C9560029F6DB092BF4D0082D16DC222BDC
:100F9000E9D0272BE9D1E6E736B19E42EAD100231A
:100FA00013703E463C46E5E71149C956002901DB6E
:100FB000092BDFD1002313703446DBE73DB900E095
:100FC0000025094B00221A70084A13600135074BAF
:100FD000002243F82520C9F80050C8F80030FFF778
:100FE00055FF03B0BDE8F0839C0000207400002092
:100FF000E44B0008F0B50C4650B106460027112519
:1010000028463946ABBE0546EB1735607360B760BE
:1010100014B10023236063600020F0BD2DE9F0438C
:1010200085B004460F4643563BBB0425284621465F
:10103000ABBE0546384605B0BDE8F08314F901CBD8
:1010400003F110026A4402F810CC0133AB42F5D32D
:1010500010336B44002203F8102C4FF00408E946CB
:1010600040464946ABBE8046761B002EE2D0354650
:10107000102E28BF10250023E8E70E46F5E708B537
:10108000FFF7CCFF08BD00000FB400B583B004AB80
:1010900053F8042B01938021074802F04DFD0028EE
:1010A00004DC03B05DF804EB04B07047014602486D
:1010B000FFF7E5FFF5E700BF9C01002010B50446EF
:1010C00002F09EFD01462046FFF7D9FF01210248AC
:1010D000FFF7D5FF10BD00BF94480008BFF34F8F46
:1010E0000549CA6802F4E062044B1343CB60BFF3C6
:1010F0004F8F00BFFDE700BF00ED00E00400FA05E0
:10110000F8B504460D4617461E462748FFF7BCFFB4
:1011100021682648FFF7B8FF61682548FFF7B4FF4C
:10112000A1682448FFF7B0FFE1682348FFF7ACFF50
:1011300021692248FFF7A8FF61692148FFF7A4FF52
:10114000A1692048FFF7A0FFE1691F48FFF79CFF56
:101150001E48FFF799FF29461D48FFF795FF1D4CD4
:10116000E16A1D48FFF790FF216B1C48FFF78CFFD9
:10117000E16B1B48FFF788FF15F0800F0AD115F4CB
:10118000004F0CD11748FFF77FFF06991648FFF76D
:101190007BFFF8BD39461548FFF776FFEFE731468C
:1011A0001348FFF771FFEDE7FC4500080C46000807
:1011B0001C4600082C4600083C4600084C46000827
:1011C0005C4600086C4600087C4600088C46000817
:1011D0009846000800ED00E0A8460008B846000860
:1011E000C8460008F846000800470008D84600082E
:1011F000E846000838B583691B888B4201D000207F
:1012000038BD044603684568013B302B5ED8DFE8F3
:1012100003F03B211C1C5330332D19195D1919198A
:1012200019193619245D19275D395D5D5D5D5D5DB8
:101230005D5D5D5D5D5D5D5D5D5D5D5D5D5D5D5DDE
:101240005D1919004FF0FF330360A3690233A361F6
:101250000120D5E700230360F7E700230360F4E7EC
:1012600000232B606B60AB60EB60EEE70023036054
:10127000EBE7AB680360E8E700230360E5E70023E2
:101280000360E2E7FFF72AFF1149286802F0A0FC9B
:1012900040B96B6813B901232360D6E7042B05D04E
:1012A000082B06D04FF0FF332360CEE702232360E4
:1012B000CBE703232360C8E72B68023B012B02D94D
:1012C000AB680360C1E700230360BEE7002097E737
:1012D000F845000808B500F009F8024A024B9A6088
:1012E00008BD00BF0000000800ED00E0024B4FF019
:1012F00000629A60704700BF00ED00E0224B9B68DF
:1013000003F00C03042B11D0082B13D0002B37D182
:101310001E4B1F4A1A601C4B9B68C3F303131D4AE4
:10132000D15C1A4A1368CB4013607047174B1A4AB6
:101330001A60F0E7144B59685A6802F03F0211F442
:10134000800F13D0144BB3FBF2F30F4A5268C2F371
:10135000881202FB03F30C4A5268C2F301420132C5
:101360005200B3FBF2F3094A1360D4E7084BB3FB16
:10137000F2F3054A5268C2F3881202FB03F3EAE76C
:10138000024B034A1A60C6E7003802400C000020F6
:101390000024F400E44A000800127A0030B595B049
:1013A00000240194224B1A6C42F080521A641B6C88
:1013B00003F080530193019B02941E4B1A6842F480
:1013C00080421A601B6803F480430293029B01234E
:1013D00008934FF4803309934FF480030F9308234D
:1013E00010934FF4A87311930225129507231393BA
:1013F0000E9508A8FFF7F6F80F23039304950594BC
:101400004FF4A05306934FF480530793052103A88C
:10141000FFF7CEFBFFF7DEFC074BA3FB0030800994
:10142000FFF7B2F80420FFF7C3F815B030BD00BFD6
:101430000038024000700040D34D621008B5FFF73D
:101440000DF8FFF7ABFFFFF759FF08BD08B50A46D7
:1014500001460248FFF718FEFEE700BF44470008B8
:1014600010B502F000F900231A461946024C54F850
:10147000200000F06AFF10BD4402002008B50023E0
:101480001A4619460248006800F05FFF08BD00BF19
:1014900040020020F0B583B0054614E0374A52F808
:1014A0002530013342F8253034E035490B681344C8
:1014B0000B60002300930421324850F8250001F00E
:1014C00067FF012855D101F041FB2F4E306000230A
:1014D0004FF0FF3219462D4850F8250001F05FF813
:1014E0002B4C33682B4A1421204602F0C5FA2146C2
:1014F0002948FFF7C9FD00231A46214627480068FE
:1015000000F023FF0128C9D0254A52F825300133C5
:1015100042F82530234E244F3B6856F8234002F012
:101520006DFA3A68214B53F8223056F822209B1A64
:101530000133B0FBF3F203FB120022184FF47A736D
:1015400003FB02F21A4BA3FB02329209194B1A60F9
:10155000012D04D0022D07D0002DAAD1A5E71649F0
:101560000B6813440B60A4E714490B6813440B6029
:101570009FE729461248FFF787FDA4E7D002002025
:10158000A402002054020020240200204402002073
:10159000740200207447000880470008DC02002025
:1015A000C40200200C4B000888020020F44A000806
:1015B000D34D621020020020A00200209C020020D7
:1015C00084470008F0B587B06848FFF75DFD684BB9
:1015D000196801316748FFF757FD674B196867487D
:1015E000FFF752FD6648FFF74FFD66480268664BFD
:1015F00019680A4465490968B1FBF2F142685C6800
:101600001444634A1268B2FBF4F280689B68184481
:10161000604B1B68B3FBF0F3039104920593002425
:101620002AE0671C39465C48FFF72EFD564D554EA3
:1016300055F8242056F824105848FFF725FD56F891
:10164000241055F8243019445548FFF71DFD06AB0A
:1016500003EB840353F80C1C5248FFF715FD56F8B2
:101660002410514A13680B44136055F824104F4A54
:1016700013680B4413603C46022CD2DD002312E0B9
:101680004B4951F823203F4850F82300024441F8C9
:101690002320484951F823203B4850F823000244B6
:1016A00041F823200133022BEADD4348FFF7ECFC2D
:1016B0003E4B1A683C4B19684048FFF7E5FC2B4845
:1016C000FFF7E2FC00230DE000222E4941F8232021
:1016D0002D4941F823203A4941F82320394941F85E
:1016E00023200133022BEFDD0021284B1960284B0A
:1016F0001960284B1960204B19602B4B19602B4B3C
:101700001960314B186800F0A9FD194A13680133BC
:101710001360052B01D807B0F0BD0024022C15DCA6
:10172000651C244B53F82430214A52F824202946C2
:101730002648FFF7A9FC0022009213460521244801
:1017400050F8240001F024FE2C46E7E70024009422
:101750002346224605211F48006801F019FE1E4855
:10176000FFF792FC204602F009F900BFB0470008DD
:1017700088020020B4470008C0020020C0470008CB
:10178000E0470008D0020020C4020020A40200208C
:10179000A00200209C020020004800081048000819
:1017A000484800086448000898020020940200207D
:1017B000B4020020A80200208048000898480008D1
:1017C0003402002028020020DC020020DC4800084F
:1017D00054020020500200202C49000808B50023C4
:1017E0004FF0FF3219460E48006800F0D8FE002383
:1017F0001A460C490C48006800F0D1FE0128EED1D1
:101800000A4C23680133236006490948FFF73CFC72
:101810002368B3F57A7FE2D3FFF7D4FEDFE700BF9A
:101820004002002060020020DC020020C0020020F4
:101830003849000808B5002214210A2000F061FD93
:10184000044B186000B108BD0348FFF71DFC0020E1
:1018500002F094F8DC0200204849000810B500248A
:1018600000E00134022C10DC03220021012000F0F2
:1018700048FD0D4B43F824000028F2D121460B48C7
:10188000FFF702FC002002F079F80322002101207A
:1018900000F037FD064B186000B110BD0548FFF79A
:1018A000F3FB002002F06AF84402002060490008BF
:1018B000400200208849000810B582B0002400E0F2
:1018C0000134022C28DC02F099F8144A82FB003221
:1018D000C317C3EB6213642202FB130303F132014B
:1018E0004FF47A7303FB01F10D4BA3FB013189091E
:1018F0000C4B19600C4B0093234601220B4801F05E
:101900002DFD0B4B43F824000028D9D10948FFF7DF
:10191000BBFB002002F032F802B010BD1F85EB5176
:10192000D34D62101C02002061140008B049000869
:1019300054020020BC49000800B583B0094B009355
:10194000002301226421084801F008FD074B1860BC
:1019500010B103B05DF804FB0548FFF795FB0020CC
:1019600002F00CF87D140008E44900085002002041
:10197000F449000810B582B0002410E00023019360
:1019800001230093234682221A491B4801F064F880
:101990001A4B1860194B1B68012B22D10134022C01
:1019A00026DC012CEAD0022C0ED0002CF2D1002330
:1019B0000193012300932346822211490E4801F02E
:1019C0004BF80E4B1860E5E70023019302230093C8
:1019D000234682220B49084801F03EF8074B186065
:1019E000D8E721460848FFF74FFB002001F0C6FF6B
:1019F00002B010BD2C4A0008951400089002002087
:101A00001C4A00083C4A00084C4A000800B583B054
:101A1000002301930322009282220849084801F022
:101A20001BF8084B1860012802D103B05DF804FBD5
:101A30000548FFF729FB002001F0A0FF704A0008CD
:101A4000DD17000890020020804A000830B583B0FE
:101A5000002400E00134022C15DC164B53F824500E
:101A600001F074F80246002300930121284601F09A
:101A70008FFC114B18600128ECD01048FFF704FBD5
:101A8000002001F07BFF0E4B1C6801F05FF802465E
:101A9000002300930121204601F07AFC064B1860D8
:101AA000012801D103B030BD0448FFF7EDFA002052
:101AB00001F064FF540200208C020020A04A0008BC
:101AC0005002002008B5002002F04CF801F068FF39
:101AD0000A48FFF7D9FAFFF7ADFEFFF7BFFEFFF7A1
:101AE000EBFEFFF729FFFFF745FFFFF78FFFFFF73B
:101AF000ADFF00F0E1FF002008BD00BFBC4A0008B8
:101B0000FEE7FEE700B583B000F02AF90190019BE3
:101B100003B05DF804FB704770470000124A12F0F2
:101B2000070F1ED0D11D21F00701C1F596331344D4
:101B30000A460E480260002141601344083B23F02E
:101B400007030B48036059601960991A51601360CC
:101B5000084B1960084B1960084B4FF000421A609F
:101B600070474FF49633E4E7F8020020F0020020BB
:101B7000EC020020E4020020E8020020E002002045
:101B8000164B1A461B688342FBD3516802EB010CCB
:101B9000844509D0416800EB010C634509D003601E
:101BA000904219D01060704740680144516010465F
:101BB000F0E710B40A4C2468A3420BD05B681944C8
:101BC000416013681B680360904200D010605DF8AC
:101BD000044B70470460F7E7704700BFF002002035
:101BE000EC02002038B5044600F0A8FF3B4B1B6810
:101BF000ABB13B4B1B681C4214D1002C66D004F1E6
:101C0000080214F0070F02D022F007020832D2B106
:101C1000344B1B6893421AD333490C681DE0FFF71D
:101C20007DFFE6E701F02CF80025FFF769FF15F0CE
:101C3000070F51D04FF0500383F31188BFF36F8F1C
:101C4000BFF34F8FFEE701F01BF80025EDE701F031
:101C500017F80025E9E721461C466368934202D243
:101C60002368002BF7D11D4B1B68A34214D00D68CD
:101C7000083523680B6063689B1A102B14D9A018D1
:101C800010F0070F0CD04FF0500383F31188BFF30F
:101C90006F8FBFF34F8FFEE700F0F2FF0025C4E720
:101CA00043606260FFF76CFF62680E490B689B1A25
:101CB0000B600E4909688B4201D20C490B60084B3E
:101CC0001B68134363600023236000E0002500F0DD
:101CD000D7FF002DABD1A8E7284638BDEC02002085
:101CE000E0020020E8020020F0020020E4020020D0
:101CF00080B338B50446A0F1080550F8043C164AF4
:101D00001268134208D14FF0500383F31188BFF3D8
:101D10006F8FBFF34F8FFEE750F8081C41B14FF0B3
:101D2000500383F31188BFF36F8FBFF34F8FFEE72C
:101D300023EA020340F8043C00F000FF54F8041CBE
:101D4000064A13680B4413602846FFF719FF00F09A
:101D500097FF38BD704700BFE0020020E802002076
:101D6000014B1868704700BFE80200200B4B1B684E
:101D7000B3F1FF3F08D04FF0500383F31188BFF356
:101D80006F8FBFF34F8FFEE74FF0500383F311883F
:101D9000BFF36F8FBFF34F8FFEE700BF100000202F
:101DA00006480068006880F3088862B661B6BFF331
:101DB0004F8FBFF36F8F00DF00BF000008ED00E022
:101DC0004FF0807340F8043C21F0010140F8081CFA
:101DD000054B40F80C3C40F8202C6FF0020340F813
:101DE000243C4438704700BF6D1D0008000000000F
:101DF000074B19680868B0E8F04F80F30988BFF313
:101E00006F8F4FF0000080F311887047AFF30080B0
:101E1000403001204FF0500383F31188BFF36F8FE0
:101E2000BFF34F8F0B4A136801331360012B00D0AF
:101E300070474FF0E023D3F8043D13F0FF0FF7D0C5
:101E40004FF0500383F31188BFF36F8FBFF34F8FB1
:101E5000FEE700BF10000020094B1B6843B94FF09C
:101E6000500383F31188BFF36F8FBFF34F8FFEE7EB
:101E7000013B034A13600BB983F31188704700BF1D
:101E80001000002000000000000000000000000022
:101E9000EFF30980BFF36F8F154B1A681EF0100F18
:101EA00008BF20ED108A20E9F04F10604DF8043D86
:101EB0004FF0500080F31188BFF34F8FBFF36F8F47
:101EC00000F0A0FF4FF0000080F3118808BC1968F3
:101ED0000868B0E8F04F1EF0100F08BFB0EC108A91
:101EE00080F30988BFF36F8F704700BFAFF30080A6
:101EF0004030012008B54FF0500383F31188BFF341
:101F00006F8FBFF34F8F00F027FE28B14FF0E02313
:101F10004FF08052C3F8042D002383F3118808BDCD
:101F2000064B1B68064AA2FB03239B09013B4FF0AB
:101F3000E022536107231361704700BF0C000020AB
:101F4000D34D62104FF0E023D3F8002D344B9A426A
:101F50001CD04FF0E023D3F8002D324B9A421ED014
:101F600010B582B0304B1A78D2B20192FF221A70AB
:101F70001B78DBB28DF803309DF8033003F050037B
:101F80002A4A13702A4B07221A601BE04FF05003B5
:101F900083F31188BFF36F8FBFF34F8FFEE74FF0CE
:101FA000500383F31188BFF36F8FBFF34F8FFEE7AA
:101FB0001F4A1368013B13609DF803305B00DBB2DE
:101FC0008DF803309DF8033013F0800FF0D1184ADC
:101FD00013681B02136003F4E0631360019BDBB220
:101FE000114A13704FF0E024D4F8203D43F47003FD
:101FF000C4F8203DD4F8203D43F07043C4F8203DA0
:10200000FFF78EFF0B4B00221A60D4F8343F43F0E9
:102010004043C4F8343FFFF7C3FEFFF7A7FE00BFFD
:1020200071C20F4170C20F4100E400E0FC2E01209C
:10203000F82E012010000020EFF305830F2B0FD99D
:10204000114A9B5CDBB2114A12789A4208D94FF0D0
:10205000500383F31188BFF36F8FBFF34F8FFEE7F9
:102060004FF0E023D3F80C3D03F4E063084A126814
:10207000934208D94FF0500383F31188BFF36F8F59
:10208000BFF34F8FFEE77047F0E300E0FC2E012026
:10209000F82E012000F1080343604FF0FF32826008
:1020A000C36003610023036070470023036170472E
:1020B00043684B609A688A60516099600861036860
:1020C00001330360704730B40D68B5F1FF3F11D0A4
:1020D00000F108031C465B681A68AA42FAD96368D3
:1020E0004B6099608C606160086103680133036034
:1020F00030BC70470469F2E70369416882688A600E
:10210000416851605A68824205D000220261186815
:1021100001381860704782685A60F6E710B50446C7
:10212000FFF778FEA26BE36B9A4204D00024FFF71E
:1021300093FE204610BD0124F9E710B50446FFF7D1
:1021400069FEA36B23B90124FFF786FE204610BD6C
:102150000024F9E770B504461546866B026C5AB93F
:1021600003681BB100200136A66370BD406800F013
:10217000E5FF00236360F6E76DB9806801F032FD8A
:10218000A368226C1344A3606268934219D3236846
:10219000A3602846E7E7C06801F024FDE368226CED
:1021A00051429B1AE3602268934202D263680B4457
:1021B000E360022D01D00020D5E726B1013E0020CA
:1021C000D1E72846CFE70020CDE70346026C6AB18D
:1021D00010B50846D9681144D9605C68A14201D3A2
:1021E0001968D960D96801F0FDFC10BD704738B599
:1021F0000546FFF70FFE95F8454064B201E0013C4B
:1022000064B2002C0ADD6B6A43B105F1240000F0D2
:1022100093FE0028F3D000F02BFFF0E7FF2385F8B2
:102220004530FFF719FEFFF7F5FD95F8444064B21D
:1022300001E0013C64B2002C0ADD2B6943B105F1D9
:10224000100000F079FE0028F3D000F011FFF0E755
:10225000FF2385F84430FFF7FFFD38BD38B5E0B106
:102260000D460446FFF7D6FD2368E26B216C01FBA7
:10227000023060600020A063A360013A02FB0133DA
:10228000E360FF2384F8443084F84530FDB92369C6
:1022900063B9FFF7E1FD012038BD4FF0500383F330
:1022A0001188BFF36F8FBFF34F8FFEE704F110006B
:1022B00000F042FE0028ECD04FF0E0234FF08052B7
:1022C000C3F8042DBFF34F8FBFF36F8FE1E704F125
:1022D0001000FFF7DFFE04F12400FFF7DBFED8E774
:1022E00038B51D46049C0B4649B92460E06323645D
:1022F00001212046FFF7B2FF84F84C5038BD226020
:10230000F4E740B94FF0500383F31188BFF36F8FA8
:10231000BFF34F8FFEE7F0B583B00C461546064677
:1023200089B101FB00F05030FFF75CFC074638B183
:1023300000902B4600F1500221463046FFF7D0FFB7
:10234000384603B0F0BD0846EDE7F0B585B0019220
:1023500088B10F461D460446B1B1022D20D1E36B72
:10236000012B1DD04FF0500383F31188BFF36F8F03
:10237000BFF34F8FFEE74FF0500383F31188BFF395
:102380006F8FBFF34F8FFEE7036C002BE5D04FF04C
:10239000500383F31188BFF36F8FBFF34F8FFEE7B6
:1023A00000F06CFE064658B9019B002B48D04FF058
:1023B000500383F31188BFF36F8FBFF34F8FFEE796
:1023C00000263DE02A4639462046FFF7C3FE636AF1
:1023D0007BB948B14FF0E0234FF08052C3F8042D91
:1023E000BFF34F8FBFF36F8FFFF736FD012005B0AE
:1023F000F0BD04F1240000F09FFD0028F4D04FF060
:10240000E0234FF08052C3F8042DBFF34F8FBFF38A
:102410006F8FE9E7FFF720FD0020E8E702A800F052
:10242000D1FD012619E0002384F8443021E0002387
:1024300084F8453023E02046FFF7D9FE00F020FC69
:10244000FFF7E8FCA26BE36B9A42BBD3022DB9D035
:10245000019B002BDED0002EE0D0FFF7FDFC00F04A
:102460006DFBFFF7D7FC94F8442052B2B2F1FF3F66
:10247000D9D094F8452052B2B2F1FF3FD7D0FFF740
:10248000EBFC01A902A800F0B3FDD8B92046FFF784
:1024900045FE0028CFD0019904F1100000F018FD8E
:1024A0002046FFF7A4FE00F0EBFB0028C8D14FF058
:1024B000E0234FF08052C3F8042DBFF34F8FBFF3DA
:1024C0006F8FBDE72046FFF792FE00F0D9FB00209A
:1024D0008DE72DE9F84390B10F4616461C46054698
:1024E000B1B1022C20D1EB6B012B1DD04FF050036A
:1024F00083F31188BFF36F8FBFF34F8FFEE74FF069
:10250000500383F31188BFF36F8FBFF34F8FFEE744
:10251000036C002BE5D04FF0500383F31188BFF319
:102520006F8FBFF34F8FFEE7FFF786FDEFF3118844
:102530004FF0500383F31188BFF36F8FBFF34F8FBA
:10254000AA6BEB6B9A4206D3022C04D0002088F3CE
:102550001188BDE8F88395F845904FFA89F922462D
:1025600039462846FFF7F6FDB9F1FF3F06D009F1DD
:1025700001035BB285F845300120E8E76B6A0BB9CF
:102580000120E4E705F1240000F0D6FC18B126B1E3
:1025900001203060DBE70120D9E70120D7E72DE9F2
:1025A000F04184B00192A0B10E4698460446C9B1EC
:1025B00000F064FD054608BB019B002B00F08780FE
:1025C0004FF0500383F31188BFF36F8FBFF34F8F2A
:1025D000FEE74FF0500383F31188BFF36F8FBFF313
:1025E0004F8FFEE7036C002BE2D04FF0500383F3D4
:1025F0001188BFF36F8FBFF34F8FFEE7002566E0B2
:10260000E56831462046FFF7E0FDB8F1000F20D124
:102610007B1EA36323683BB123694BB9FFF71CFC06
:10262000012004B0BDE8F08100F0E0FD6060F3E758
:1026300004F1100000F080FC0028EFD04FF0E02300
:102640004FF08052C3F8042DBFF34F8FBFF36F8F4D
:10265000E4E7E560636A002BE0D004F1240000F0B9
:102660006BFC0028DAD04FF0E0234FF08052C3F823
:10267000042DBFF34F8FBFF36F8FCFE7FFF7ECFB56
:102680000020CEE702A800F09DFC012529E00023F0
:1026900084F8443031E0002384F8453033E0FFF71C
:1026A000B9FB606800F0FAFCFFF7D6FB3BE0204680
:1026B000FFF79DFD00F0E4FA09E02046FFF797FDE3
:1026C00000F0DEFA2046FFF738FD002842D1FFF780
:1026D000A1FBA76B002F93D1019B002BCED0002D27
:1026E000D0D0FFF7B9FB00F029FAFFF793FB94F87D
:1026F000442052B2B2F1FF3FC9D094F8452052B203
:10270000B2F1FF3FC7D0FFF7A7FB01A902A800F075
:102710006FFC0028D1D12046FFF70FFD0028C6D05E
:102720002368002BBBD0019904F1240000F0D0FBFA
:102730002046FFF75CFD00F0A3FA0028C7D14FF058
:10274000E0234FF08052C3F8042DBFF34F8FBFF347
:102750006F8FBCE7002064E70023072B0CD8074AE3
:1027600052F833200AB10133F7E7044A42F8331034
:1027700002EBC30250607047704700BF002F01207A
:1027800070B504460D461646FFF744FB94F84430F6
:102790005BB2B3F1FF3F0DD094F845305BB2B3F1BB
:1027A000FF3F0BD0FFF758FBA36B5BB12046FFF751
:1027B0001EFD70BD002384F84430EDE7002384F84B
:1027C0004530EFE73246294604F1240000F098FB3B
:1027D000ECE70000084B1B681B6823B9074B4FF060
:1027E000FF321A607047044B1B68DB68DB685A686D
:1027F000024B1A60704700BFB02F0120482F012004
:1028000010B50446006BFFF773FA2046FFF770FA25
:1028100010BD2DE9F04780460D4617469946089EA3
:10282000DDF824A00A9C9200A521206B01F092F90A
:10283000236B07F18042013A03EB820727F0070779
:102840004FF0000CBCF1090F09D815F90C3004EB5E
:102850000C0282F8343013B10CF1010CF2E70023C2
:1028600084F83D30042E00D90426E662A6640025D3
:10287000E564201DFFF719FC04F11800FFF715FCB3
:102880002461C6F10506A6616462256584F854508A
:102890004A4641463846FFF793FA2060BAF1000FE6
:1028A00001D0CAF80040BDE8F087000038B5002428
:1028B00007E004EB840293000E481844FFF7EAFB9C
:1028C0000134042CF5D90C4D2846FFF7E3FB0B4CE3
:1028D0002046FFF7DFFB0A48FFF7DCFB0948FFF75C
:1028E000D9FB0948FFF7D6FB084B1D60084B1C605D
:1028F00038BD00BFDC2F0120C82F0120B42F0120DC
:10290000982F0120842F01206C2F0120B02F01204F
:10291000AC2F012010B50446FFF77CFA224A136859
:1029200001331360214B1B685BB1214B1B686BB9F2
:102930001E4B1B68DA6AE36A9A4207D81B4B1C607D
:1029400004E01A4B1C601368012B29D0194A136844
:10295000013313602364E06A01238340164A11683F
:102960000B43136000EB8000211D144B03EB800030
:10297000FFF79EFBFFF770FA0D4B1B687BB10B4B0B
:102980001B68DA6AE36A9A4209D24FF0E0234FF0FB
:102990008052C3F8042DBFF34F8FBFF36F8F10BD6C
:1029A000FFF784FFD2E700BF682F012040300120ED
:1029B0005C2F01204C2F0120602F0120DC2F0120F3
:1029C00070B504460D461D4B1E681D4B186804303B
:1029D000FFF792FB48B91A4B1B68DB6A01229A4049
:1029E00018490B6823EA02030B60B4F1FF3F0DD0D6
:1029F0003444134B1B685C60A64210D9124B186814
:102A00000F4B19680431FFF75EFB70BD002DEFD04E
:102A10000B4B196804310D48FFF74AFBF5E70C4BE7
:102A20001868074B19680431FFF74DFB094B1B6809
:102A3000A342EAD9074B1C60E7E700BF642F0120DF
:102A400040300120602F0120AC2F01206C2F01208D
:102A5000B02F0120482F01202DE9F04385B0074613
:102A60000E4614461D469000FFF7BCF8F8B18146AB
:102A70005820FFF7B7F8804698B1C0F8309000238F
:102A8000039302900D9B01930C9B00932B462246CF
:102A900031463846FFF7BDFE4046FFF73BFF0120B9
:102AA00007E04846FFF724F94FF0FF3001E04FF010
:102AB000FF3005B0BDE8F08300B583B0194B01933A
:102AC00000230093822218491848FFF7C5FF012808
:102AD00005D0B0F1FF3F1BD003B05DF804FB00F060
:102AE00015FC0128F5D14FF0500383F31188BFF393
:102AF0006F8FBFF34F8F0E4B4FF0FF321A600D4BAD
:102B000001221A600C4B00221A60FFF71BFAE3E760
:102B10004FF0500383F31188BFF36F8FBFF34F8FD4
:102B2000FEE700BF442F0120CC4A0008D52D000845
:102B3000482F01205C2F0120642F0120024A1368D6
:102B400001331360704700BF402F0120014B18680C
:102B5000704700BF642F0120F8B53E4B1B68002B67
:102B60006AD13D4B1D6801351D60C5B93B4B1B68E3
:102B70001B6843B14FF0500383F31188BFF36F8F8D
:102B8000BFF34F8FFEE7354A1168354B1868106068
:102B90001960344A136801331360FFF71BFE324B90
:102BA0001B68AB423ED90027304B1B68DB6A03EB46
:102BB00083039A002E4B9B58012B00D901272D4BE4
:102BC0001B68002B3FD1FEF7A6FF3CE00127234BFB
:102BD0001B681B6843B3214B1B68DB68DC686368B8
:102BE0009D4226D3261D3046FFF786FAA36A1BB105
:102BF00004F11800FFF780FAE36A01229A401E49A7
:102C0000086802430A6003EB83039A0031461848C0
:102C10001044FFF74DFAE26A144B1B68DB6A9A42D4
:102C2000D4D2D4E70027D2E70F4B4FF0FF321A601F
:102C3000BAE70D4A1360B7E70E4A13680133136011
:102C4000FEF769FF00270D4B1B6803B101273846CB
:102C5000F8BD00BF402F0120642F0120B02F0120BC
:102C6000AC2F0120502F0120482F0120403001209F
:102C7000DC2F0120582F0120602F0120542F01202C
:102C800038B5354B1B6843B94FF0500383F31188B7
:102C9000BFF36F8FBFF34F8FFEE7FFF7BBF82E4BED
:102CA0001A68013A1A601B68002B4FD12B4B1B6826
:102CB0000BB900244BE00024294B1B681BB3284BA5
:102CC000DB68DC6804F11800FFF716FA251D2846BA
:102CD000FFF712FAE06A01238340224A11680B438E
:102CE000136000EB800029461F4B03EB8000FFF7C9
:102CF000DFF9E26A1D4B1B68DB6A9A42DCD31C4B8E
:102D000001221A60D8E70CB1FFF764FD194B1C686B
:102D100084B9174B1C68D4B14FF0E0234FF08052B8
:102D2000C3F8042DBFF34F8FBFF36F8F01240EE064
:102D3000013C07D0FFF710FF0028F9D00C4B01220F
:102D40001A60F5E70B4B00221A60E2E70024FFF758
:102D500083F8204638BD00BF402F0120682F012096
:102D6000982F0120602F0120DC2F0120403001200E
:102D7000542F0120582F0120134B1B6813B310B59B
:102D8000FFF7DCFE114B1C68FFF77AFF24B90E4BEE
:102D90001B68002BF4D110BDFFF73CF80B4BDB6830
:102DA000DC68201DFFF7A8F9094A1368013B13608E
:102DB000054A1368013B1360FFF74EF82046FFF702
:102DC0001FFDE4E7704700BF802F0120842F012002
:102DD000682F012008B50BE04FF0E0234FF0805240
:102DE000C3F8042DBFF34F8FBFF36F8FFEF78AFE3A
:102DF000FFF7C2FF024B1B68012BEDD8F6E700BFBF
:102E0000DC2F012008B52D4B1B681BB12C4B012278
:102E10001A6008BD2A4B00221A602A4B1B681B6BE4
:102E20001A68B2F1A53F03D15A68B2F1A53F1BD091
:102E3000244B186819683431FEF763FE224B1B6877
:102E4000B3FA83F3DBB2C3F11F0303EB83018A0000
:102E50001E498A588AB94FF0500383F31188BFF393
:102E60006F8FBFF34F8FFEE79A68B2F1A53FDFD1B6
:102E7000DB68B3F1A53FDBD1E0E7144803EB830146
:102E80008A00024451684968516003EB830C4FEAA1
:102E90008C0208320244914209D003EB83039A006A
:102EA0000A4B13445B68DA68064B1A60B1E748685E
:102EB00062469100054A0A445060EEE7402F012027
:102EC000542F012040300120602F0120DC2F0120F1
:102ED00058B110B50C46094A11681831FFF7F3F8DC
:102EE00001212046FFF76CFD10BD4FF0500383F326
:102EF0001188BFF36F8FBFF34F8FFEE74030012083
:102F000038B570B10D4614460A4A11681831FFF7FA
:102F1000CFF80CB14FF0FF3521462846FFF750FDA2
:102F200038BD4FF0500383F31188BFF36F8FBFF3A9
:102F30004F8FFEE74030012038B5C368DC6824B30A
:102F400004F118052846FFF7D7F8184B1B682BBB70
:102F5000251D2846FFF7D0F8E06A01238340144A74
:102F600011680B43136000EB80002946114B03EB03
:102F70008000FFF79DF8E26A0F4B1B68DB6A9A42FC
:102F800011D901200D4B186038BD4FF0500383F369
:102F90001188BFF36F8FBFF34F8FFEE729460848B4
:102FA000FFF786F8E7E70020EEE700BF402F01209B
:102FB000602F0120DC2F012040300120542F012000
:102FC000982F012030B1084A12680260074A12683F
:102FD000426070474FF0500383F31188BFF36F8F47
:102FE000BFF34F8FFEE700BF502F0120642F012059
:102FF00038B5C0B10C460546F1B1FEF70BFF1A4BD0
:103000001A682368B3F1FF3F27D028681749096879
:10301000884202D06968914224D96968501A834273
:1030200013D801241AE04FF0500383F31188BFF343
:103030006F8FBFF34F8FFEE74FF0500383F311887C
:10304000BFF36F8FBFF34F8FFEE7891A0B442360E6
:103050002846FFF7B7FF002400E00024FEF7FCFE3F
:10306000204638BD0124F9E7642F0120502F0120AC
:10307000014B01221A607047542F0120054B1B6839
:1030800033B1054B1B680BB100207047022070471D
:10309000012070475C2F0120402F0120002845D0DF
:1030A00038B50446C36A224A1268D26A934214D2DF
:1030B0008269002A05DB1E4A1268D26AC2F1050243
:1030C0008261616903EB83031A4A02EB830399422D
:1030D00004D0174B1B68DB6AE36238BD251D284608
:1030E000FFF70AF890B1124B1B68D86AE06201231F
:1030F0008340114A11680B43136000EB800029469E
:103100000C4B03EB8000FEF7D3FFE6E7E36A03EB2B
:103110008301084A52F82120002AE4D101229A4072
:1031200005490B6823EA02030B60DCE7704700BF28
:1031300040300120DC2F0120602F012000284BD0DF
:1031400038B50446264B1B68834208D04FF0500325
:1031500083F31188BFF36F8FBFF34F8FFEE7C36C0C
:1031600043B94FF0500383F31188BFF36F8FBFF360
:103170004F8FFEE7013BC364C16A826C91422DD040
:103180000BB1002038BD051D2846FEF7B5FF68B914
:10319000E36A03EB8301134A52F8212032B901227A
:1031A0009A4011490B6823EA02030B60A06CE062AD
:1031B000C0F10503A361012404FA00F30A4A11686F
:1031C0000B43136000EB80002946064B03EB8000A5
:1031D000FEF76EFF2046D5E7002070470020D1E7BC
:1031E00040300120DC2F0120602F0120054B1B689F
:1031F00023B1044B1A68D36C0133D364014B1868B4
:10320000704700BF40300120064B1A681368B3FABC
:1032100083F35B09036013B9D36818687047002013
:10322000704700BF5430012008B5416000619142F1
:103230000CD8D21A83699A4201D3012008BD011D1E
:10324000094B1868FEF73FFF0020F7E79A4201D2CA
:10325000994206D2011D054B1868FEF734FF002085
:10326000ECE70120EAE700BF503001205430012094
:1032700038B5FEF7CFFD0F4B1B6813B1FEF7ECFD21
:1032800038BD0D4D2846FEF705FF0C4C2046FEF7D5
:1032900001FF0B4B1D600B4B1C6000220C210A2010
:1032A000FFF72FF8034B18600028E7D00649FFF717
:1032B00053FAE3E74C3001206C30012058300120F4
:1032C0005430012050300120D44A00082DE9F0414B
:1032D000079F41B94FF0500383F31188BFF36F8FFD
:1032E000BFF34F8FFEE7064615461C4688465FB182
:1032F000FFF7BEFF3E60C7F81880FD613C62069B89
:103300007B62381DFEF7D1FEBDE8F08100B583B0C9
:10331000FFF7AEFF0D4B1B685BB10D4B0193022312
:10332000009300234FF482720A490B48FFF794FB85
:1033300040B94FF0500383F31188BFF36F8FBFF391
:103340004F8FFEE703B05DF804FB00BF4C30012057
:1033500048300120DC4A0008513600082DE9F041D0
:1033600082B00446884615461E462C20FEF73AFCDD
:10337000074640B10190089B009333462A464146D8
:103380002046FFF7A3FF384602B0BDE8F0810000F9
:10339000B8B19C4603461848006858B300B585B0DC
:1033A00001910292039305291CDCFFF767FE0228B6
:1033B00010D000231A4601A90F480068FEF7C5FF88
:1033C00015E04FF0500383F31188BFF36F8FBFF305
:1033D0004F8FFEE70023069A01A907480068FEF711
:1033E000B4FF04E00023624601A9FFF772F805B0BC
:1033F0005DF804FB002070474C30012070B582B0AE
:103400001A4B1B681A6852B3DB681E68DC68251DFE
:103410002846FEF771FE636A20469847E369012B50
:10342000EED1A36933449E4207D2636024612946EA
:103430000E4B1868FEF747FEE2E7002100910B46AD
:1034400032462046FFF7A4FF0028D9D14FF05003A1
:1034500083F31188BFF36F8FBFF34F8FFEE7044AEA
:10346000106802490860136002B070BD543001203A
:103470005030012038B50546FFF768FB0446074B7E
:103480001B68834205D800232B60044B1C60204638
:1034900038BDFFF7B3FF01232B60F6E7443001206E
:1034A00070B582B006460D4614490968C968CC68F3
:1034B000201DFEF721FEE169012904D0636A204640
:1034C000984702B070BDA16933462A463144204670
:1034D000FFF7AAFE0028F1D0002100910B463246EA
:1034E0002046FFF755FF0028E8D14FF0500383F343
:1034F0001188BFF36F8FBFF34F8FFEE75430012069
:1035000070B582B006460C46FFF718FB01A8FFF71E
:10351000B1FF019B23BB054644B9B0420CD3FFF772
:10352000AFFB29463046FFF7BBFF1BE00E4B1B6885
:103530001C68B4FA84F464092246711B0B4B1868AA
:10354000FFF71EF9FFF79CFB60B94FF0E0234FF047
:103550008052C3F8042DBFF34F8FBFF36F8F01E08C
:10356000FFF78EFB02B070BD503001204C300120BF
:1035700010B586B000231A4603A934480068FFF747
:103580000EF8002860D0039B002BF3DB059C6369D9
:1035900013B1201DFEF7B0FD02A8FFF76BFF039BE0
:1035A000092BE7D801A252F823F000BFD535000857
:1035B000D5350008D5350008753500081B360008DC
:1035C00041360008D5350008D535000875350008A6
:1035D0001B360008049BA169024619442046FFF7E8
:1035E00023FE0028C6D0636A20469847E369012B72
:1035F000C0D1A269002100910B46049802442046E4
:10360000FFF7C6FE0028B5D14FF0500383F31188B1
:10361000BFF36F8FBFF34F8FFEE70499A16131B104
:103620000346024601442046FFF7FEFDA2E74FF0A5
:10363000500383F31188BFF36F8FBFF34F8FFEE703
:103640002046FEF755FB95E706B010BD4C30012033
:1036500000B583B001A8FFF7D7FD0199FFF750FF30
:10366000FFF786FFF6E740B110B50446FEF7D2FB40
:10367000246AFEF7F1FB204610BD4FF0500383F3A0
:103680001188BFF36F8FBFF34F8FFEE753B94AB96D
:10369000002908BF00281CBF4FF0FF314FF0FF305A
:1036A00000F06AB9ADF1080C6DE904CE00F006F83F
:1036B000DDF804E0DDE9022304B070472DE9F047AE
:1036C000089D0E4604460F46002B4AD194468C4571
:1036D000B2FA82F260D942B1C2F12003974020FAD7
:1036E00003F30CFA02FC1F4394404FEA1C4E1FFAEE
:1036F0008CF6B7FBFEF1230C0EFB117743EA074370
:1037000001FB06F098420AD91CEB030301F1FF37D5
:1037100080F01581984240F21281023963441B1AED
:10372000A4B2B3FBFEF00EFB103344EA034400FBEB
:1037300006F6A6420AD91CEB040400F1FF3380F020
:103740000081A64240F2FD806444023840EA014014
:10375000A41B00211DB1D4400023C5E90043BDE8EE
:10376000F0878B4205D90DB1C5E90001002108465B
:10377000F5E7B3FA83F1002946D1B34202D382427E
:1037800000F2F580841A66EB030201201746002D33
:10379000E5D0C5E90047E2E7002A40F09380A1EBBD
:1037A0000C034FEA1C471FFA8CFE0121B3FBF7F60E
:1037B00007FB1630230C43EA00430EFB06F0984249
:1037C00008D91CEB030306F1FF3802D2984200F23D
:1037D000D08046461B1AA4B2B3FBF7F007FB1033A8
:1037E00044EA03440EFB00FEA64508D91CEB040482
:1037F00000F1FF3302D2A64500F2B6801846A4EBD2
:103800000E0440EA0640A5E7C1F120078B4022FAEA
:1038100007FC4CEA030C06FA01FE20FA07F426FA2C
:1038200007F344EA0E0400FA01F84FEA1C404FEA9D
:103830001449B3FBF0FE1FFA8CF600FB1E3349EA75
:1038400003430EFB06F9994502FA01F20BD91CEB72
:1038500003030EF1FF3A80F08580994540F28280A3
:10386000AEF1020E6344A3EB0909A4B2B9FBF0F375
:1038700000FB139944EA094403FB06F6A64208D963
:103880001CEB040403F1FF3068D2A64266D9023B68
:10389000644443EA0E40A41BA0FB02E6B442734614
:1038A000B14652D34FD05DB1B8EB030264EB0904CB
:1038B00004FA07F722FA01F31F43CC40C5E900746C
:1038C00000214CE7C2F1200120FA01F30CFA02FCBE
:1038D00026FA01F1964033434FEA1C471FFA8CFE4B
:1038E000B1FBF7F007FB1016190C41EA064100FB8B
:1038F0000EF68E4204FA02F408D91CEB010100F125
:10390000FF382DD28E422BD902386144891B9BB2DD
:10391000B1FBF7F607FB161143EA014306FB0EF174
:10392000994208D91CEB030306F1FF3814D29942DF
:1039300012D9023E63445B1A46EA004136E7394633
:10394000EDE6184602E7F045ADD2BEEB020366EBAA
:103950000C060138B146A6E74646ECE7034698E771
:103960004046D3E7D6467EE76444023847E7084638
:103970000DE7023E63442DE7704700BF08B5064BD4
:10398000044613B10021AFF30080044B1B6803B160
:1039900098472046FDF76AFA00000000B831012080
:1039A00038B5104B1D682B6B0446B3B9182000F0D6
:1039B0002FF90246286320B90B4B0C484621FDF72E
:1039C0000FFA0B490B4BC0E900130B4B83600B2321
:1039D000838100210120C2E904012B6B00221C61BC
:1039E0005A6138BD14000020244B00083B4B0008EE
:1039F0000E33CDAB34126DE6ECDE0500164B10B580
:103A00001C68236BB3B9182000F002F9024620634A
:103A100020B9124B12485221FDF7E2F91149124B1D
:103A2000C0E90013114B83600B2383810021012027
:103A3000C2E90401216B0E480B694C690D4A5843D9
:103A400002FB0400A3FB0232013340EB0200C1E998
:103A5000043020F0004010BD14000020244B00086A
:103A60003B4B00080E33CDAB34126DE6ECDE0500A7
:103A70002DF451582D7F954C0CB430B5174B0C1EBE
:103A80001D689DB008DA8B232B604FF0FF301DB00E
:103A9000BDE8304002B070474FF40273ADF8143007
:103AA00014BF04F1FF332346049307934FF6FF73CB
:103AB00002900690ADF81630209A21AB02A9284654
:103AC000019300F0B7F9431CBCBF8B232B60002C83
:103AD000DDD0029B00221A70D9E700BF140000203D
:103AE00030B51446002C9BB005461A4605DA8B23E8
:103AF00003604FF0FF301BB030BD4FF40273ADF8E0
:103B00000C3014BF04F1FF332346029305934FF6A4
:103B1000FF7300910491ADF80E3069461E9B00F0D2
:103B200089F9431CBCBF8B232B60002CE3D0009B86
:103B300000221A70DFE7000007B5009313460A461B
:103B4000014603480068FFF7CBFF03B05DF804FBB4
:103B50001400002002440346934200D1704703F84A
:103B6000011BF9E7DFB50C4B4FF0FF364FF0FF3785
:103B70006946044600221868CDE9006700F00EF897
:103B80000028B8BFCDE90067DDE900010CB1C4E948
:103B9000000104B0D0BD00BF1400002038B5074DAF
:103BA00000230446084611462B60FDF723FA431C08
:103BB00002D12B6803B1236038BD00BF98010020FB
:103BC000014B1868704700BF140000207047704711
:103BD00010F8012B11F8013B012A28BF9A42F7D0B7
:103BE000D01A70470A44914200F1FF3300D1704768
:103BF00010B511F8014B03F8014F9142F9D110BDF6
:103C0000034613F8012B002AFBD1181A013870471C
:103C1000024B0146186800F025B800BF14000020D0
:103C200070B50F4E0C463168054611B900F0A4FB83
:103C300030602146284600F09FFB431C03D14FF023
:103C4000FF34204670BDC41C24F00304A042F8D009
:103C5000211A284600F090FB0130F2D1EFE700BFB7
:103C6000C03101202DE9F843CD1C25F003050835AE
:103C70000C2D38BF0C25002D064601DBA94204D9C6
:103C80000C2333600020BDE8F883DFF8D48000F017
:103C900069F8D8F800301C4644BB29463046FFF787
:103CA000BFFF431C044658D1D8F800402746002FD8
:103CB00043D1002C4BD023683946304604EB03092E
:103CC00000F05AFB814542D121686D1A29463046E1
:103CD000FFF7A6FF01303AD023682B442360D8F8C1
:103CE00000305A6862BBC8F800700FE02268521BAF
:103CF00020D40B2A17D96119A342256018BF596037
:103D0000636808BFC8F8001062514B60304600F08D
:103D10002FF804F10B00231D20F00700C21A1CBF6E
:103D20001B1AA350AFE76268A3420CBFC8F800207B
:103D30005A60EBE723466468AEE73C467F68B6E727
:103D40001A465B68A342FBD100235360DEE70C23D5
:103D50003360304600F00CF894E70560D6E700BF0A
:103D6000C43101200148FFF731BF00BFBC31012041
:103D70000148FFF72CBF00BFBC3101202DE9F047FF
:103D80008E681F46BE420B6882460C4690462DD870
:103D9000B1F90C2012F4906F26D06569096905EB22
:103DA0004505A3EB010905EBD5757B1C4B446D1054
:103DB0009D4238BF1D46530527D52946FFF752FFC0
:103DC000064660B321694A46FFF70CFFA38923F436
:103DD000906343F08003A381266165614E44A5EBA7
:103DE00009052660A5603E46BE4200D93E462068D1
:103DF0003246414600F0A6FAA3689B1BA3602368E5
:103E0000334423600020BDE8F0872A4600F062FBBF
:103E100006460028E0D12169504600F011FB0C2332
:103E2000CAF80030A38943F04003A3814FF0FF306C
:103E3000E9E700002DE9F04F98468B891B069DB0FD
:103E400007460D46144610D50B6973B94021FFF79C
:103E500009FF2860286130B90C233B604FF0FF3028
:103E60001DB0BDE8F08F40236B6100230993202330
:103E70008DF82930CDF80C803023DFF89C818DF847
:103E80002A304FF0010923469A4613F8012B0AB154
:103E9000252AF9D1BAEB040B0BD05B462246294602
:103EA0003846FFF76BFF013000F0A780099A5A44AB
:103EB00009929AF80030002B00F09F8000234FF009
:103EC000FF32CDE905230AF1010A049307938DF827
:103ED00053301A935446052214F8011B4E4800F043
:103EE0005FFA049AD8B9D00644BF20238DF8533026
:103EF000110744BF2B238DF853309AF800302A2B3A
:103F000015D0079A544600204FF00A0C214611F8AC
:103F1000013B303B092B4BD9B0B1079214E0A0EB29
:103F2000080309FA03F313430493A246D2E7039B61
:103F3000191D1B680391002BBBBF5B4242F00202BC
:103F400007930793B8BF049223782E2B0AD1637886
:103F50002A2B32D1039B1A1D1B68039243EAE37399
:103F600002340593DFF8C0A021780322504600F008
:103F700017FA38B1049BA0EB0A0040228240134399
:103F80000134049314F8011B24488DF828100622EC
:103F900000F006FA002836D0214B1BBB039B0733E9
:103FA00023F0070308330393099B334409936AE71B
:103FB0000CFB02320C460120A8E7002301340593D4
:103FC00019464FF00A0C204610F8012B303A092A06
:103FD00003D9002BC6D00591C4E70CFB0121044690
:103FE0000123F0E703AB00932A460E4B04A93846A1
:103FF000AFF30080421C0646D6D1AB895B063FF585
:104000002DAF09982CE703AB00932A46054B04A972
:10401000384600F079F8EDE7B04B0008BA4B0008DD
:10402000000000007D3D0008B64B00082DE9F04778
:10403000164698468A680B69DDF820909342B8BF0F
:104040001346336091F8432007460C460AB101330A
:1040500033602368990642BF3368023333602568B2
:1040600015F0060506D104F1190AE36832689B1AB7
:10407000AB4226DC94F843302268003B18BF012392
:1040800092062BD404F1430241463846C84701301A
:104090001ED02368226903F00603042B02BFE568E3
:1040A0003368ED1AA3680CBF25EAE5750025934235
:1040B000C4BF9B1AED1800261A34B5421AD100204D
:1040C00008E00123524641463846C847013003D133
:1040D0004FF0FF30BDE8F0870135C6E7E1185A1C04
:1040E000302081F84300224494F8451082F84310B0
:1040F0000233C7E70123224641463846C84701300C
:10410000E6D00136D9E700002DE9FF470F7E0C9E6F
:10411000782F914680460C469A4601F1430207D813
:10412000622F0AD8002F00F0D180582F00F0B880FD
:1041300004F1420684F842703AE0A7F16303152BBC
:10414000F6D801A151F823F0A1410008B5410008BB
:104150003141000831410008314100083141000877
:10416000B5410008314100083141000831410008E3
:1041700031410008B3420008DF4100086D420008E9
:104180003141000831410008D542000831410008A2
:10419000DF41000831410008314100087542000844
:1041A00033681A1D1B68326004F1420684F84230FD
:1041B00001239CE033682068191D3160060601D593
:1041C0001D6803E04506FBD5B3F90050002D03DA66
:1041D0002D236D4284F8433058480A2311E02168AA
:1041E0003368080653F8045B02D4490648BFADB2F1
:1041F0006F2F5248336014BF0A230823002184F82C
:1042000043106668A660002E05DB21682E4321F06E
:10421000040121604BD01646B5FBF3F103FB1157A7
:10422000C75D06F8017D2F46BB420D46F4D9082B29
:104230000BD12368DF0708D5236961689942DEBF87
:10424000302306F8013C06F1FF36921B2261CDF8BF
:1042500000A04B4603AA21464046FFF7E7FE013087
:104260004AD14FF0FF3004B0BDE8F087236843F037
:10427000200323603248782784F84570236831682A
:104280001F0651F8045B02D45F0648BFADB231602F
:10429000D90744BF43F0200323601DB11023ADE7CD
:1042A0002648E9E7236823F020032360F6E7164653
:1042B000BDE7336825686169181D30602E061B68EC
:1042C00001D5196002E06806FBD51980002323613F
:1042D0001646BCE733681A1D32601E68626800210A
:1042E000304600F05DF808B1801B606063682361B0
:1042F000002384F84330AAE7236932464946404602
:10430000D0470130ADD023689B0713D4E068039BEE
:104310009842B8BF1846A6E70123324649464046B0
:10432000D04701309DD00135E36803995B1AAB4259
:10433000F2DCEBE7002504F11906F5E7C14B0008B4
:10434000D24B0008884210B501EB020402D9844226
:10435000234607D8431EA14208D011F8012B03F8C9
:10436000012FF8E7024401468A4200D110BD13F83C
:10437000014D02F8014DF7E738B5064D002304461C
:1043800008462B60FCF750FD431C02D12B6803B19B
:10439000236038BD980100200000000000000000EC
:1043A00001F0FF01102A2BDB10F0070F08D010F8E6
:1043B000013B013A8B422DD010F0070F42B3F6D1EA
:1043C000F0B441EA012141EA014122F007047FF003
:1043D00000070023F0E80256083C85EA010586EA5A
:1043E000010685FA47F5A3FA87F586FA47F6A5FA96
:1043F00087F68EB9EED1F0BC01F0FF0102F00702A2
:1044000032B110F8013B013A83EA010313B1F8D14C
:104410000020704701387047002D06BF354603382D
:10442000073815F0010F07D1013015F4807F02BF66
:10443000013015F4C03F0130F0BC0138704700BFB7
:1044400038B50546002941D051F8043C0C1F002B1B
:10445000B8BFE418FFF786FC1D4A136833B96360E0
:1044600014602846BDE83840FFF782BCA34208D953
:10447000206821188B4201BF19685B680918216008
:10448000EDE71A465B680BB1A342FAD911685018E0
:10449000A0420BD120680144501883421160E0D142
:1044A00018685B68536008441060DAE702D90C238F
:1044B0002B60D6E7206821188B4204BF19685B681F
:1044C000636004BF091821605460CAE738BD00BFAB
:1044D000C43101202DE9F041074614460D4621B9AB
:1044E000BDE8F0411146FFF7BDBB2AB9FFF7A8FFB1
:1044F00025462846BDE8F08100F01AF884420646B9
:1045000002D8B4EB500FF4D821463846FFF7AAFB87
:10451000804608B94546ECE7B4422246294628BF02
:104520003246FFF75FFB29463846FFF789FFF1E780
:1045300051F8043C181F002BBCBF0B58C018704723
:104540002E2E2F73797374656D2F7372632F7374AE
:104550006D333266342D68616C2F73746D3332663F
:104560003478785F68616C5F636F727465782E630E
:10457000000000002E2E2F73797374656D2F7372F7
:10458000632F73746D333266342D68616C2F7374CE
:104590006D3332663478785F68616C5F7263632E66
:1045A000630000002C2066756E6374696F6E3A209C
:1045B00000000000617373657274696F6E202225BC
:1045C0007322206661696C65643A2066696C6520B7
:1045D000222573222C206C696E65202564257325A5
:1045E000730A000061626F727428292C2065786953
:1045F00074696E672E2E2E003A74740053746163D2
:104600006B206672616D653A0A000000205230200E
:104610003D2020253038580A00000000205231206B
:104620003D2020253038580A00000000205232205A
:104630003D2020253038580A000000002052332049
:104640003D2020253038580A000000002052313229
:10465000203D20253038580A00000000204C522010
:104660003D2020253038580A00000000205043200B
:104670003D2020253038580A0000000020505352B9
:10468000203D20253038580A000000004653522FA4
:104690004641523A0A0000002043465352203D2032
:1046A00020253038580A00002048465352203D202B
:1046B00020253038580A00002044465352203D201F
:1046C00020253038580A00002041465352203D2012
:1046D00020253038580A0000204D4D464152203DDB
:1046E00020253038580A00002042464152203D2003
:1046F00020253038580A00004D6973630A00000015
:10470000204C522F4558435F52455455524E3D2040
:10471000253038580A0000005B48617264466175B4
:104720006C745D0A000000005B4275734661756C35
:10473000745D0A005B55736167654661756C745DF5
:104740000A00000057726F6E6720706172616D65BC
:10475000746572732076616C75653A2066696C6564
:10476000202573206F6E206C696E652025640D0A0C
:104770000000000054696D6520697320256C750088
:1047800025730A004661696C656420746F20636854
:10479000616E67652074696D657220706572696FFE
:1047A0006420666F72207461736B2025640A0000B8
:1047B0000A0A0000506572696F643A2025640A0095
:1047C000546F74616C205265636569766564204D31
:1047D00065737361676573203D20256C750A000061
:1047E00043616C63756C6174696E672074686520E1
:1047F000617665726167652074696D65200A0000E5
:1048000053656E646572205461736B2025640A00E1
:104810005375636365737366756C205472616E7350
:104820006D697373696F6E73203D20256C750A4244
:104830006C6F636B6564204D65737361676573208E
:104840003D20256C750A0000546F74616C207365FF
:104850006E74206D65737361676573203D20256CF0
:10486000750A0000417665726167652053656E6464
:10487000696E672054696D65203D20256C750A00BE
:10488000466F722074686973206974657261746917
:104890006F6E3A200A000000546F74616C205375EB
:1048A000636365737366756C205472616E736D69B2
:1048B0007373696F6E73203D20256C750A746F7475
:1048C000616C20426C6F636B6564204D657373612E
:1048D000676573203D20256C750A000053656E6482
:1048E0006572205461736B2025643A2053756D20E6
:1048F0005375636365737366756C205472616E7370
:104900006D697373696F6E73203D20256C752C2063
:1049100053756D20426C6F636B6564204D657373D6
:1049200061676573203D20256C750A0047616D65E0
:10493000204F7665720A000052656365697665648A
:104940003A2025730A0000004661696C6564207492
:104950006F206372656174652071756575650A0005
:104960004661696C656420746F206372656174656B
:104970002073656E6465722073656D6170686F7217
:10498000652025640A0000004661696C6564207436
:104990006F20637265617465207265636569766511
:1049A000722073656D6170686F72650A00000000A7
:1049B00053656E64657254696D65720048616E641A
:1049C0006C652073656E6465725F74696D657220D5
:1049D0006372656174696F6E206661696C7572657A
:1049E0000A000000526563656976657254696D65F9
:1049F0007200000048616E646C65207265636976C0
:104A000065725F74696D6572206372656174696F48
:104A10006E206661696C7572650A000053656E648C
:104A200065725461736B734C6F77310053656E64BC
:104A300065725461736B734C6F77320053656E64AB
:104A400065725461736B4869676800004661696C00
:104A5000656420746F206372656174652073656E90
:104A6000646572207461736B2025640A0000000085
:104A700052656365697665725461736B000000006E
:104A80004661696C656420746F206372656174654A
:104A9000207265636569766572207461736B0A00C4
:104AA00048616E646C652074696D65722073746111
:104AB0007274206661696C7572650A0052544F53B6
:104AC0005F70726F6A726563740A000049444C45F6
:104AD00000000000546D725100000000546D7220FF
:104AE0005376630000000000000000000102030490
:104AF0000607080996000000C8000000FA00000040
:104B00002C0100005E010000900100003200000056
:104B1000500000006E0000008C000000AA000000A1
:104B2000C80000005245454E54206D616C6C6F63A7
:104B300020737563636565646564002F5F5F772F1D
:104B400061726D2D6E6F6E652D656162692D676393
:104B5000632D787061636B2F61726D2D6E6F6E6562
:104B60002D656162692D6763632D787061636B2FBA
:104B70006275696C642F77696E33322D7836342F05
:104B8000736F75726365732F6E65776C69622D63E1
:104B9000796777696E2F6E65776C69622F6C6962D1
:104BA000632F7374646C69622F72616E642E63008C
:104BB000232D302B2000686C4C0065666745464706
:104BC0000030313233343536373839414243444589
:104BD00046003031323334353637383961626364F8
:104BE0006566000020202020202020202028282862
:104BF00028282020202020202020202020202020A5
:104C000020202020881010101010101010101010EC
:104C1000101010100404040404040404040410100C
:104C200010101010104141414141410101010101A9
:104C30000101010101010101010101010101011055
:104C4000101010101042424242424202020202027E
:104C50000202020202020202020202020202021026
:104C600010101020000000000000000000000000F4
:104C70000000000000000000000000000000000034
:104C80000000000000000000000000000000000024
:104C90000000000000000000000000000000000014
:104CA0000000000000000000000000000000000004
:104CB00000000000000000000000000000000000F4
:104CC00000000000000000000000000000000000E4
:104CD00000000000000000000000000000000000D4
:104CE000000000001000000000000000017A5200E7
:104CF000027C0E011B0C0D001000000018000000CB
:104D000000EFFFFF10000000000000001000000096
:104D100000000000017A5200027C0E011B0C0D0005
:104D2000380000001800000078F6FFFF9E00000029
:104D300000510E1084048503860287015BC7C6C537
:104D4000C40E004C0A420B0A420B0E108404850369
:0C4D50008602870151C7C6C5C40E0000D2
:084D5C0060E9FF7F0100000087
:104D64007856341201FFFFFF100000000024F40005
:104D7400AAAAAAAA1800002000000000803001207E
:104D8400E830012050310120000000000000000044
:104D9400000000000000000000000000000000000F
:104DA40000000000000000000000000000000000FF
:104DB40000000000000000000000000000000000EF
:084DC400000000003254769853
:040000050800018965
:00000001FF
